S016000042696B654272616B654C696768742E73726563B6
S11300000C9480030C94AC070C949D030C949F03F4
S11300100C949D030C949D030C949D030C949D03DC
S11300200C949D030C949D030C94420E0C949D031C
S11300300C949D030C949D030C949D030C949D03BC
S11300400C949D030C949D030C949D030C949D03AC
S11300500C949D030C949D030C949D030C949D039C
S11300600C949D030C949D030C949D030C949D038C
S11300700C949D030C949D030C949D030C949D037C
S11300800C949D030C949D030C949D030C949D036C
S11300900C949D030C949D030C949D030C949D035C
S11300A00C949D030C949D030C949D0330043F0415
S11300B065047C05350527057C052E051D057C0595
S11300C07C057C057C057C057C057C057C057C0524
S11300D07C057C057C051605DE06A907F006A90744
S11300E07F077707A907A907A907A9076C07A90725
S11300F0A9075707A907A907A907A90736072A07C0
S1130100500757095E09AF0A7009AF0AAF0A560AC9
S1130110610AAF0AAF0A500AAF0AAF0A4B0AAF0A24
S11301208D0AAF0AAF0A640A150B300B360B8E0B1F
S1130130350C210C350CFE0B110C350C350CA00BB9
S1130140A60B350CB50B350CAB0B350CF60B350C7F
S1130150D70BC00BCB0BFFFFFFFFFFFF8000000698
S11301600080008000800002000000000000000009
S113017000040000000000000000FF7F0000FF5F9B
S1130180FF0FFF2F40008000FF2FFF5FFF0F400095
S11301908000FF0FFF2FFF5F400080000000000081
S11301A00000FF7F0000FF5F00000000000100016D
S11301B00000FF5F00000001000100000000FF5F7D
S11301C000010001000000000000FF7F00000000AB
S11301D00000FF5F800000020000000000008000BB
S11301E00002000000000000FF7F0000FF5FFF5FCF
S11301F0FF5F00040100000000000000FF7F00001A
S113020000000000000000040100000000000000E5
S1130210FF7F000000000000FF010001000000005B
S1130220FF01FF0F00010000FF01FF0F00000001AC
S11302300000FF0F0000FF01000100000000FF01AB
S1130240FF0F00010000FF01FF0F0000000100008C
S1130250FF0F0000FF01000100000000FF01FF0F7D
S113026000010000FF01FF0F000000010000FF0F6C
S11302700000000000010000FF0100000000000178
S11302800000000000000000000100000000000069
S113029000000001000000000000FF010001000058
S11302A000000000FF0F000100000000FF01FF0F2D
S11302B0000100000000FF0FFF0F00010000FF011C
S11302C0FF0FFF0F00010000FF0FFF0FFF0F0001E2
S11302D00000FF0FFF0FFF0F0010000000000000E0
S11302E00000FF7F000000000000FF01000100008B
S11302F00000FF01FF0F00010000FF01FF0F0000DD
S113030000010000FF0F0000FF01000100000000D9
S1130310FF01FF0F00010000FF01FF0F00000001BB
S11303200000FF0F0000FF01000100000000FF01BA
S1130330FF0F00010000FF01FF0F0000000100009B
S1130340FF0F0000000000010000FF01000000009A
S11303500001000000000000000000010000000097
S1130360000000000001000000000000FF01000187
S1130370000000000000FF0F000100000000FF016A
S1130380FF0F000100000000FF0FFF0F000100003D
S1130390FF01FF0FFF0F00010000FF01FF0FFF0F20
S11303A000000010000000000000FF7F00000000BB
S11303B00000FF01000100000000FF01FF0F000129
S11303C00000FF01FF0F000000010000FF0F00000C
S11303D0FF01000100000000FF01FF0F0001000009
S11303E0FF01FF0F000000010000FF0F0000FF01EC
S11303F0000100000000FF01FF0F00010000FF01E9
S1130400FF0F000000010000FF0F000000000001CA
S11304100000FF01000000000001000000000000D7
S113042000000001000000000000000000010000C6
S113043000000000FF010001000000000000FF0FA9
S1130440000100000000FF01FF0F00010000000098
S1130450FF0FFF0F000100000000FF0FFF0F00005F
S11304600010000000000000FF7F000000000000FA
S1130470FF01000100000000FF01FF0F0001000068
S1130480FF01FF0F000000010000FF0F0000FF014B
S1130490000100000000FF01FF0F00010000FF0148
S11304A0FF0F000000010000FF0F0000FF0100012A
S11304B000000000FF01FF0F00010000FF01FF0F1B
S11304C0000000010000FF0F000000000001000018
S11304D0FF01000000000001000000000000000017
S11304E00001000000000000000000010000000006
S11304F00000FF010001000000000000FF0F0001E8
S113050000000000FF01FF0F000100000000FF01D8
S1130510FF0F00000010000000000000FF7F00003B
S113052000000000FF01000100000000FF01FF0FB8
S113053000010000FF01FF0F000000010000FF0F99
S11305400000FF01000100000000FF01FF0F000197
S11305500000FF01FF0F000000010000FF0F00007A
S1130560FF01000100000000FF01FF0F0001000077
S1130570FF01FF0F000000010000FF0F000000005A
S113058000010000FF010000000000010000000065
S11305900000000000010000000000000000000155
S11305A0000000000000FF01000100000000000046
S11305B0FF0F0001000000000000FF0F000000100A
S11305C0000000000000FF7F000000000000FF01A9
S11305D0000100000000FF01FF0F00010000FF0107
S11305E0FF0F000000010000FF0F0000FF010001E9
S11305F000000000FF01FF0F00010000FF01FF0FDA
S1130600000000010000FF0F0000FF0100010000D6
S11306100000FF01FF0F00010000FF01FF0F0000B9
S113062000010000FF0F0000000000010000FF01B6
S113063000000000000100000000000000000001B4
S113064000000000000000000001000000000000A5
S1130650FF010001000000000000FF010000001085
S1130660000000000000FF7F000000000000FF0108
S1130670000100000000FF01FF0F00010000FF0166
S1130680FF0F000000010000FF0F0000FF01000148
S113069000000000FF01FF0F00010000FF01FF0F39
S11306A0000000010000FF0F0000FF010001000036
S11306B00000FF01FF0F00010000FF01FF0F000019
S11306C000010000FF0F0000000000010000FF0116
S11306D00000000000010000000000000000000114
S11306E00000000000000000000100000000000005
S11306F0000000000010000000000000FF7F000068
S113070011241FBECFEFDAE0DEBFCDBF12E0A0E0C0
S1130710B1E0E2EAFDE102C005900D92A236B10714
S1130720D9F722E0A2E6B2E001C01D92AC3AB207CA
S1130730E1F70E94640C0C94CF0E0C9400001F92FD
S11307400F920FB60F9211248F9381E0809367026A
S11307508F910F900FBE0F901F9018958EBD0DB402
S113076007FEFDCF8EB50895CF93DF93D82FC62F04
S113077028988CB580648CBD8AE00E94AE038D2FCE
S11307800E94AE038C2F0E94AE038CB58F7B8CBD70
S1130790289ADF91CF910895CF93C82F28988CB5CC
S11307A080648CBD8BE00E94AE038C2F0E94AE034C
S11307B08FEF0E94AE039CB59F7B9CBD289ACF917E
S11307C008951F93CF93DF93182FD62FC72F289800
S11307D08CB580648CBD8AE00E94AE03812F0E9498
S11307E0AE038D2F0E94AE038C2F0E94AE038CB5F6
S11307F08F7B8CBD289ADF91CF911F910895CF9361
S1130800DF93C82F28988CB580648CBD8BE00E9440
S1130810AE038C2F0E94AE038FEF0E94AE03C82F4D
S1130820D0E08FEF0E94AE039CB59F7B9CBD289ABD
S11308309E01382BC901DF91CF910895EF92FF9269
S11308400F931F93CF93DF9390E0FC013197E63130
S1130850F10508F051C1EB01EA5AFF4F0C94BA0EAE
S11308601092670281E08093660224E630E03093C0
S113087065022093640290E19CBD8DBD3DC168EC8E
S113088070E080E20E94E1036AE082E20E94B40325
S11308906DE770E083E20E94E1036AE070E085E2C4
S11308A00E94E10363E087E20E94B40360E18BE20B
S11308B00E94B40363E08CE20E94B4036AE08DE218
S11308C00E94B4031092AA0217C180916702882380
S11308D091F08BE00E94CC03109267028091660233
S11308E0843009F400C183E080936602D0936502EA
S11308F0C093640226C080916402909165026817D7
S1130900790738F48C1B9D0B9093650280936402E5
S1130910F3C080916602843040F4823090F48823DE
S113092009F47FC0813021F0E7C0843039F0E4C09D
S11309308BE00E94CC0310926602DEC01092660225
S1130940DBC08EE00E94FF03EC0180E10E94FF0304
S11309507C0182E10E94FF038C01C953DF4FCF3831
S1130960D14008F04EC095E8E91693E0F9060CF47E
S113097048C08091AA02811105C061E070E086E15F
S11309800E94390C08338FEF18074CF460E070E0D4
S11309908DE00E94390C82E08093660203C083E0FC
S11309A080936602C801992324F488279927801B21
S11309B0910B8E37910594F08091620290916302BD
S11309C0892B29F461E070E080E10E94390C8CE20B
S11309D091E090936302809362021CC08091620252
S11309E0909163020097B1F0019790936302809312
S11309F06202892B79F460E070E080E10E94390C96
S1130A0009C08091AA02882329F060E070E086E1A1
S1130A100E94390C84E690E090936502809364020E
S1130A206BC0109265021092640266C081E0CD2B07
S1130A3009F480E08093AA025FC084E08093660298
S1130A4080ED97E0909365028093640255C0809195
S1130A506602882309F450C018824EC010926602C0
S1130A60109265021092640247C08EE00E94FF0358
S1130A70F82EE92E80E10E94FF03182F092F82E14E
S1130A800E94FF03C82FD92FEF92FF928AE091E0D2
S1130A909F938F930E94300E0F931F9383E191E0F5
S1130AA09F938F930E94300EDF93CF938CE191E05C
S1130AB09F938F930E94300E8DEC91E09F938F93C0
S1130AC08091AA021F928F9385E291E09F938F9366
S1130AD00E94300E8DB79EB742960FB6F8949EBF13
S1130AE00FBE8DBF09C08091640290916502C81742
S1130AF0D90708F023CF06CFDF91CF911F910F9133
S1130B00FF90EF9008950E942209EEE7F0E08081C3
S1130B108064808386E080937C0087EC80937A00F5
S1130B20EAE7F0E0808186FDFDCF87EC80937A00D0
S1130B30EAE7F0E0808186FDFDCF80917800209186
S1130B40790010927A00EEE7F0E090819F7B908329
S1130B5090E0922B08950E942209EEE7F0E0808154
S1130B60806180838D9A84E080937C0087EC8093FD
S1130B707A00EAE7F0E0808186FDFDCF87EC809380
S1130B807A00EAE7F0E0808186FDFDCF809178006D
S1130B902091790090E0922B10927A00859A8D989A
S1130BA0EEE7F0E020812F7E208320E335E73093C9
S1130BB069022093680220E034E0281B390BADEC75
S1130BC0BCEC0E94C00E9695879596958795969550
S1130BD087950895CF93DF93EB01853009F4ACC07A
S1130BE028F4813061F08330B9F0BCC0883009F456
S1130BF09CC0813169F1863009F0B4C08EC08FEF9A
S1130C009FEF90936B0280936A0281E090E090934F
S1130C10690280936802A6C080916802909169027B
S1130C20009709F49FC06817790738F4861B970B5F
S1130C30909369028093680295C00E94AB059093DB
S1130C406B0280936A02BC0181E10E94390C8AC064
S1130C508091A6028230B9F0833041F18130C9F528
S1130C606A31710530F063E070E082E10E94390C72
S1130C7047C06B30710508F475C062E070E082E132
S1130C800E94390C3DC06530710530F461E070E0BC
S1130C9082E10E94390C34C06A31710508F462C0E3
S1130CA063E070E082E10E94390C2AC0653071056E
S1130CB030F461E070E082E10E94390C21C06431BB
S1130CC0710508F04FC062E070E082E10E94390CC7
S1130CD017C06530710530F461E070E082E10E9474
S1130CE0390C0EC06531710530F063E070E082E1CB
S1130CF00E94390C05C062E070E082E10E94390C68
S1130D00DF93CF9381E391E09F938F930E94300E02
S1130D100F900F900F900F9025C080916A029091D0
S1130D206B020196F9F418821DC081E090E0909363
S1130D3069028093680216C08DEC91E09F938F93B3
S1130D4080916B028F9380916A028F938AE391E082
S1130D509F938F930E94300E0F900F900F900F90DF
S1130D600F900F90DF91CF910895813921E0920780
S1130D7098F0893922E0920788F444E6489F90016C
S1130D80499F300D1124C90180549C4969E071E0E8
S1130D900E94920E862F089580E0089584E60895B7
S1130DA0CF93DF9390E0FC013197E531F10508F032
S1130DB0D0C0DB01E459FF4F0C94BA0E8FEF9FEFC4
S1130DC09093700280936F0288EE93E09093740284
S1130DD08093730281E080936E0280936D02B9C0A8
S1130DE08091730290917402009709F16817790752
S1130DF038F4861B970B909374028093730217C088
S1130E000E94830590937202809371020E94B5063A
S1130E10682F70E07093700260936F0283E10E9408
S1130E20390C80E69AEE9093740280937302809159
S1130E306E02882309F48DC06EB166FB662760F9E3
S1130E4080916D02681709F484C070E084E10E9407
S1130E50390C7FC0109711F0889A01C0889881E0FE
S1130E60AB2B09F480E080936D0273C06A30710586
S1130E7050F480916C02882351F060E070E085E1C9
S1130E800E94390C66C080916C02811162C0509737
S1130E9008F45FC061E070E085E10E94390C59C03C
S1130EA081E0AB2B09F480E080936C0252C081E0B6
S1130EB0109709F480E080936E02AB2B09F049C0CF
S1130EC060E070E084E10E94390C80916F0290919F
S1130ED070020E94E1083DC080916F0290917002FF
S1130EE08F3F2FEF9207A9F10E94E10832C0809151
S1130EF06F0290917002019661F51C922AC0CDECAC
S1130F00D1E0DF93CF93809172028F93809171022D
S1130F108F93809170028F9380916F028F9385E4F9
S1130F2091E09F938F930E94300EDF93CF93809133
S1130F306D021F928F938AE591E09F938F930E9495
S1130F40300E8DB79EB70E960FB6F8949EBF0FBEA7
S1130F508DBFDF91CF9108951F920F920FB60F921C
S1130F6011248F9389B181708093780281E08093FA
S1130F7079028F910F900FBE0F901F901895CF9309
S1130F80DF93863009F4AFC0EB01873028F4823058
S1130F9051F0833069F0B9C0893009F465C08B30F1
S1130FA009F499C0B2C01092790210927502ADC0D2
S1130FB080917902882369F01092790280917502F8
S1130FC0853009F497C06091780270E089E00E944E
S1130FD0390C80917502882309F497C060917602D8
S1130FE0709177026C0F7D1F709377026093760285
S1130FF0833061F128F4813049F08230D9F085C022
S1131000843061F0853009F080C027C0653F7140AD
S113101008F47BC084E08093750277C0693E734016
S113102008F473C060E070E08CE00E94390C109208
S113103075026BC0653F714008F467C060E070E002
S11310408AE00E94390C109275025FC0653F7140BE
S113105008F45BC01092750258C0693E734008F4EE
S113106054C01092750251C0109277021092760209
S1131070809175028230D1F028F4882341F08130C8
S113108069F043C08330D1F0843011F13EC081E077
S1131090CD2B09F480E08093750237C0CD2B11F07D
S11310A080E001C082E0809375022FC0CD2B11F443
S11310B080E001C083E08093750227C0CD2B29F422
S11310C060E070E08BE00E94390C109275021DC044
S11310D0109275021AC085E080937502109277020F
S11310E01092760212C080917502882371F0FB0180
S11310F010820BC060917602709177026C0F7D1F95
S11311007093770260937602A8CFDF91CF91089510
S11311102091860230918702DC01AA0FBB1FA80F21
S1131120B91FA20FB31F4D915C91452B11F480E0C0
S113113090E0FC01EE0FFF1FE80FF91FE20FF31F11
S1131140208131813093850220938402428140932F
S11311508802309383022093820241E0232B09F416
S113116040E040938E020895CF93DF93EC01FC019D
S1131170EE0FFF1FE050FF4F80819181892B11F406
S1131180C0E0D0E0FE01EE0FFF1FE050FF4F808172
S11311909181909387028093860280E090E00E9480
S11311A0880880938902C0938D02CE01DF91CF918C
S11311B00895909383028093820281E080938E024B
S11311C008958D35910528F084E192E00E94D908B4
S11311D008959C012D5431092031310528F486EEFF
S11311E092E00E94D90808959C012B5331092231C1
S11311F0310528F48EEA93E00E94D90808959C01F1
S11312002B5231092031310528F48CE694E00E94F8
S1131210D90808959C012A5131092131310528F456
S113122080E295E00E94D90808950997419728F42F
S11312308AEC95E00E94D90808958AE696E00E9417
S1131240D90808952598269827980895FC01808147
S11312509181892B29F0259A81818093880001C08E
S1131260259882819381892B29F0269A8381809302
S11312708A0001C0269884819581892B29F0279AB8
S1131280858180938C00089527980895EF92FF92AA
S11312900F931F93CF93DF9390E08331910508F070
S11312A05EC1EB01FC01EF57FF4F0C94BA0E89EAC3
S11312B08093800089E08093810051C1259826980D
S11312C0279881E080938C0282E080938B021092B5
S11312D08A021092A60210928302109282023FC1E7
S11312E08091820290918302009709F438C1209181
S11312F08E02223009F43FC0233009F483C0213028
S113130009F02DC1FC01369665917491FC01389663
S11313102591349130937B0220937A02CCE7D2E07A
S113132022E832E0DE01FC01459154914D935D9336
S11313300296A217B307B9F782E080938E02E62ED5
S1131340F72E7093900260938F0207E912E0E1E9AF
S1131350F2E089919991D8014D915D918D01841BA1
S1131360950B6E2D7F2D0E94A60E61937193C2176B
S1131370D30779F7F4C080918F0290919002681797
S11313807907E0F4861B970B9093900280938F0269
S1131390A1E9B2E0E7E9F2E04DE952E08D919D91D7
S11313A020813181820F931F81939193E417F50774
S11313B0A9F787E992E00E942609D1C0E7E9F2E0A3
S11313C0ACE7B2E08D919C91119791838083129642
S11313D08D919C9113979383828314968D919C9104
S11313E0159795838483CF010E94260980917A0200
S11313F090917B029093900280938F0283E080937C
S11314008E02ADC020918F02309190026217730753
S113141038F4261B370B3093900220938F029FC021
S11314209C01265F3F4F3093830220938202FC018C
S11314307096859194918F3F9F4749F580918802DA
S113144081110BC010928E0288E691E09F938F93D6
S11314500E94300E0F900F900DC08150809388022F
S1131460811108C08091890290E001960E94880849
S113147080938902809184029091850290938302E3
S11314808093820280918E02882309F468C081E0EF
S113149080938E0264C086E591E00E94D9085FC003
S11314A060E070E08FE00E94390C59C080918E0298
S11314B0811105C080918D02882309F450C01882DF
S11314C04EC00E9422094BC06093A60277277F93E7
S11314D06F9384E791E09F938F930E94300E0F9057
S11314E00F900F900F908091A602823051F08330BC
S11314F071F08130A1F580918C0290E00E94B408D3
S11315002EC080918B0290E00E94B40828C0809184
S11315108A0290E00E94B40822C08091A602823020
S113152069F08330A1F08130D1F480918C0290E095
S113153001960E94B40880938C0211C080918B02A2
S113154090E001960E94B40880938B0208C08091B9
S11315508A0290E001960E94B40880938A02DF9187
S1131560CF911F910F91FF90EF900895A895F9994D
S1131570FECF92BD81BD6F3F19F484E18FBB03C0E0
S113158060BD84E08FBBF99A0895813049F46FEF10
S113159080E090E00E94B60A10929E0210929D0292
S11315A008951F93CF93DF93EC01019771F481EABF
S11315B091E09F938F930E94300E83E080936900A3
S11315C081E08DBB0F900F900DC08DEA91E09F9349
S11315D08F930E94300E83E18093690085E08DBB78
S11315E00F900F90BE0187E00E94390C15E013BFE5
S11315F0889513BEBE0188E00E94390C81E1809376
S113160069001DBBDF91CF911F910895CF93DF93A4
S11316101F92CDB7DEB790E08731910508F025C160
S1131620FC01EC56FF4F0C94BA0E84B78093A102D0
S113163014BE80E185B987EE84B980EC88B917B807
S113164082EF8BB91AB884E08EB91DB882E881BBE9
S113165081E280BB15B880E581BB80937E0005C123
S113166081E18093690085E08DBBFFC09DE088E146
S11316700FB6F894A895809360000FBE9093600015
S11316808091A10282FF07C02DE332E03093A002D3
S113169020939F0221C083FF07C024E332E03093EC
S11316A0A00220939F0218C081FF07C02BE232E002
S11316B03093A00220939F020FC080FF07C023E253
S11316C032E03093A00220939F0206C02BE132E067
S11316D03093A00220939F021F928F938091A002C7
S11316E08F9380919F028F938AEB91E09F938F93C6
S11316F00E94300E8DEC91E09F938F9380ED91E0EA
S11317009F938F938CE592E09F938F930E94300E6A
S11317100FB6F894DEBF0FBECDBFA7C0A89581E079
S11317208983BE016F5F7F4F86E00E94390C8981F7
S1131730882309F49AC080E090E00E94D10A95C001
S113174060E070E085E00E94390C8FC081E090E099
S11317500E94D10A8AC08091A7028B7F6170660FB4
S1131760660F682B6093A70280C08091A702877FD1
S11317706170660F660F660F682B6093A70275C0D1
S11317808091A7028F7D61706295660F607E682BE1
S11317906093A7026AC08091A7028F7B61706295F3
S11317A0660F660F607C682B6093A7025EC0809111
S11317B0A702982F9F7E862F81708295807F892B28
S11317C08093A702672B49F086EF91E09F938F9354
S11317D00E94300E0F900F9048C081E092E09F93DA
S11317E08F930E94300E0F900F903FC08091A702FC
S11317F08C7F6370682B6093A70237C00FB6F89490
S1131800A8958091600088618093600010926000C8
S11318100FBE88988DEA8093640089E980936500FF
S113182024C080EA80936400109265009DE088E102
S11318300FB6F894A895809360000FBE9093600053
S113184014C08DEC91E09F938F938091A7021F9217
S11318508F938BE092E09F938F930E94300E0F90B2
S11318600F900F900F900F900F900F90DF91CF91EA
S113187008950F931F93CF93C82F8B010E94060BDB
S1131880B8018C2F0E94C50AB8018C2F0E941C0E2F
S1131890B8018C2F0E941E04B8018C2F0E944609A7
S11318A0B8018C2F0E94EA05B8018C2F0E94530EB8
S11318B0B8018C2F0E94D006B8018C2F0E94BF075C
S11318C0CF911F910F91089560E070E080E00E9435
S11318D0390C60E070E081E00E94390C60E070E057
S11318E082E00E94390C7894C0E0D0E00F2EF8EE2C
S11318F0EF2EF3E0FF2EF02D61E070E083E00E9414
S1131900390C2196C83E83E0D807B0F39E01369582
S113191027953695279536952795A5ECB0E20E9434
S1131920C00E8C01129502950F7001271F700127BC
S1131930B80184E00E94390C8091A2029091A30224
S1131940800F911F9093A3028093A2020E9DC00169
S11319500F9D900D1E9D900D1124C81BD90BCCCF4B
S1131960CF92DF92FF920F931F93CF93DF93EC01FB
S11319708A01FC01222371F04031510511F090E2FB
S113198001C090E3DB01AB01465F5F4F9D93A41759
S1131990B507E1F7DB0119961C920A30110509F02D
S11319A047C0DD2344F4EE27FF27EC1BFD0BCC24BA
S11319B0C394D12C02C0C12CD12C3097F1F002C0B9
S11319C0C12CD12CEB01299630E0F02E412FCF0110
S11319D0B8010E94920E21978A3010F490E301C05E
S11319E097E3890F8883CF016F2D742F0E94920E85
S11319F0FB013F5F309759F706C0EB01289680E35F
S1131A00FB01808731E0CD2811F08DE28A932223F7
S1131A10A1F0231740F0822F90E0831B9109919548
S1131A208195910902C080E090E0C80FD91F05C0DC
S1131A30309731F6C12CD12CE0CFCE01DF91CF917C
S1131A401F910F91FF90DF90CF9008956F927F9236
S1131A508F929F92AF92BF92CF92DF92EF92FF92BA
S1131A600F931F93CF93DF93CDB7DEB72A970FB6AB
S1131A70F894DEBF0FBECDBF7C018B016A01689470
S1131A80992491F86894882482F86894772473F8E8
S1131A90612CA3C0853209F096C0D80111968C91AF
S1131AA0843371F0883399F0823321F00E5F1F4F35
S1131AB0262D12C0F80182810D5F1F4F292D0CC005
S1131AC0D80112968C910D5F1F4F282D05C0F80187
S1131AD082810D5F1F4F272D843671F038F48532D3
S1131AE009F46DC0833609F460C077C0833709F404
S1131AF045C0883709F171C05601F2E0AF0EB11C40
S1131B004AE050E0BE016F5F7F4FD6018D919C91FA
S1131B100E94B00CFC018081882309F459C06F0134
S1131B20BFEFCB1ADB0AF7010995D6018D916D0140
S1131B308111F9CF650151C05601B2E0AB0EB11C61
S1131B40223008F4292D40E150E0BE016F5F7F4F41
S1131B50F601808191810E94B00CFC018081882370
S1131B60C9F16F019FEFC91AD90AF7010995D60186
S1131B708D916D018111F9CF65012FC05601B2E03D
S1131B80AB0EB11CD601ED91FC918081882321F12B
S1131B906F01BFEFCB1ADB0AF7010995D6018D91CE
S1131BA06D018111F9CF650118C05601B2E0AB0E89
S1131BB0B11CF6018081F701099565010EC085E22B
S1131BC0F70109950AC00F5F1F4FF701099505C07A
S1131BD0650103C0650101C06501D8018C918111C3
S1131BE059CFF70109952A960FB6F894DEBF0FBEB8
S1131BF0CDBFDF91CF911F910F91FF90EF90DF90B8
S1131C00CF90BF90AF909F908F907F906F900895EA
S1131C10E8ECF0E0908195FFFDCF8093CE0008952D
S1131C201092CD008CE08093CC0088E08093C900B2
S1131C3086E08093CA000895873039F0883041F0F7
S1131C40813069F40E94100E08951092C90008951D
S1131C50E5E6F0E080818E7F80830E94100E089577
S1131C60CF93DF93CDB7DEB7AE014B5F5F4FFA0181
S1131C7061917191AF0188E09EE00E94260DDF9191
S1131C80CF9108951F920F920FB60F9211248F9344
S1131C901092DA0081E08093A5028F910F900FBE1D
S1131CA00F901F901895823041F0833061F081309D
S1131CB0C1F581E18093D80008958091D9008170A5
S1131CC08093A40208958091A502882351F1109273
S1131CD0A5028091D90091E0282F217080FF90E027
S1131CE09093A402211103C08FE492E002C086E421
S1131CF092E02DEC31E03F932F939F938F9388E5EF
S1131D0092E09F938F930E94300E6091A40270E042
S1131D108EE00E94390C0F900F900F900F900F904F
S1131D200F900895AA1BBB1B51E107C0AA1FBB1F3C
S1131D30A617B70710F0A61BB70B881F991F5A9553
S1131D40A9F780959095BC01CD01089597FB072EC6
S1131D5016F4009407D077FD09D00E94920E07FC78
S1131D6005D03EF4909581959F4F089570956195A7
S1131D707F4F0895EE0FFF1F0590F491E02D099415
S1131D80A29FB001B39FC001A39F700D811D1124B8
S1131D90911DB29F700D811D1124911D0895F89419
S1051DA0FFCF6F
S1131DA292018C0198010000860178203D2025646F
S1131DB20D0A0079203D2025640D0A007A203D2079
S1131DC225640D0A004F6E62696B652025642573D4
S1131DD2004C44522025640D0A004C4452202564D0
S1131DE22525257300426174742025642525202845
S1131DF272617720256429257300436861726769DB
S1131E026E672025642573004C4544732069646C15
S1131E12650D0A004E6577206461796C69676874A0
S1131E223D25640D0A00CE010A000000EC010A00FF
S1131E320000000200000000A601057E010A000065
S1131E420044656570536C6565700D0A004C6967E2
S1131E526874536C6565700D0A000D0A0A52657345
S1131E6265743A257320283078253278290D0A00C2
S1131E725370696B65792042696B65204C696768A8
S1131E827420666F722041546D6567613332553434
S1131E922076302E37004368617267696E670D0AD7
S1131EA200436861726765640D0A0053797342697D
S1131EB27473203078253478257300556E6B6E6FF9
S1131EC2776E00506F7765724F6E00457874526575
S1131ED2736574005761746368446F670042726F7C
S1131EE2776E4F75740041545461636865640044AD
S1131EF24554616368656400555342202573257314
S1051F020000D9
S9030000FC
