S016000042696B654272616B654C696768742E73726563B6
S11300000C9462030C94BF060C947F030C9481033C
S11300100C947F030C947F030C947F030C947F0354
S11300200C947F030C947F030C94070A0C947F03B5
S11300300C947F030C947F030C947F030C947F0334
S11300400C947F030C947F030C947F030C947F0324
S11300500C947F030C947F030C947F030C947F0314
S11300600C947F030C947F030C947F030C947F0304
S11300700C947F030C947F030C947F030C947F03F4
S11300800C947F030C947F030C947F030C947F03E4
S11300900C947F030C947F030C947F030C947F03D4
S11300A00C947F030C947F030C947F033206BE06EA
S11300B044066606A806A006BE06BE06BE06BE0622
S11300C09506BE06BE0680067B088208E5099408EC
S11300D0E509E5098C099709E509E5098609E509B2
S11300E0E5096F09E509C309E509E5099A09E5097F
S11300F074097D095C0A770A7F0AE10A610B610BC6
S1130100610B3F0B520B610B610B210B270B610B36
S11301102C0B610B610B610B370BFFFFFFFFFFFF24
S113012080000006008000800080000200000000C3
S11301300000000000040000000000000000FF7F39
S11301400000FF5FFF0FFF2F40008000FF2FFF5FC5
S1130150FF0F40008000FF0FFF2FFF5F4000800073
S1130160000000000000FF7F0000FF5F00000000AF
S1130170000100010000FF5F000000010001000019
S11301800000FF5F00010001000000000000FF7F8D
S1130190000000000000FF5F80000002000000007B
S11301A0000080000002000000000000FF7F00004B
S11301B0FF5FFF5FFF5F000401000000000000001C
S11301C0FF7F0000000000000000000401000000A8
S11301D000000000FF7F000000000000FF0100019C
S11301E000000000FF01FF0F00010000FF01FF0FEE
S11301F0000000010000FF0F0000FF0100010000EB
S11302000000FF01FF0F00010000FF01FF0F0000CD
S113021000010000FF0F0000FF01000100000000CA
S1130220FF01FF0F00010000FF01FF0F00000001AC
S11302300000FF0F0000000000010000FF010000AB
S113024000000001000000000000000000010000A8
S11302500000000000000001000000000000FF0199
S11302600001000000000000FF0F0001000000007A
S1130270FF01FF0F000100000000FF0FFF0F00014E
S11302800000FF01FF0FFF0F00010000FF0FFF0F31
S1130290FF0F00010000FF0FFF0FFF0F0010000011
S11302A0000000000000FF7F000000000000FF01CC
S11302B0000100000000FF01FF0F00010000FF012A
S11302C0FF0F000000010000FF0F0000FF0100010C
S11302D000000000FF01FF0F00010000FF01FF0FFD
S11302E0000000010000FF0F0000FF0100010000FA
S11302F00000FF01FF0F00010000FF01FF0F0000DD
S113030000010000FF0F0000000000010000FF01D9
S113031000000000000100000000000000000001D7
S113032000000000000000000001000000000000C8
S1130330FF010001000000000000FF0F00010000A9
S11303400000FF01FF0F000100000000FF0FFF0F7E
S113035000010000FF01FF0FFF0F00010000FF017B
S1130360FF0FFF0F00000010000000000000FF7FDF
S1130370000000000000FF01000100000000FF0178
S1130380FF0F00010000FF01FF0F0000000100004B
S1130390FF0F0000FF01000100000000FF01FF0F3C
S11303A000010000FF01FF0F000000010000FF0F2B
S11303B00000FF01000100000000FF01FF0F000129
S11303C00000FF01FF0F000000010000FF0F00000C
S11303D0000000010000FF01000000000001000017
S11303E00000000000000001000000000000000008
S11303F00001000000000000FF01000100000000F7
S11304000000FF0F000100000000FF01FF0F0001CA
S113041000000000FF0FFF0F000100000000FF0FAD
S1130420FF0F00000010000000000000FF7F00002C
S113043000000000FF01000100000000FF01FF0FA9
S113044000010000FF01FF0F000000010000FF0F8A
S11304500000FF01000100000000FF01FF0F000188
S11304600000FF01FF0F000000010000FF0F00006B
S1130470FF01000100000000FF01FF0F0001000068
S1130480FF01FF0F000000010000FF0F000000004B
S113049000010000FF010000000000010000000056
S11304A00000000000010000000000000000000146
S11304B0000000000000FF01000100000000000037
S11304C0FF0F000100000000FF01FF0F000100000A
S11304D00000FF01FF0F00000010000000000000FA
S11304E0FF7F000000000000FF0100010000000089
S11304F0FF01FF0F00010000FF01FF0F00000001DA
S11305000000FF0F0000FF01000100000000FF01D8
S1130510FF0F00010000FF01FF0F000000010000B9
S1130520FF0F0000FF01000100000000FF01FF0FAA
S113053000010000FF01FF0F000000010000FF0F99
S11305400000000000010000FF01000000000001A5
S11305500000000000000000000100000000000096
S113056000000001000000000000FF010001000085
S113057000000000FF0F0001000000000000FF0F5A
S113058000000010000000000000FF7F00000000D9
S11305900000FF01000100000000FF01FF0F000147
S11305A00000FF01FF0F000000010000FF0F00002A
S11305B0FF01000100000000FF01FF0F0001000027
S11305C0FF01FF0F000000010000FF0F0000FF010A
S11305D0000100000000FF01FF0F00010000FF0107
S11305E0FF0F000000010000FF0F000000000001E9
S11305F00000FF01000000000001000000000000F6
S113060000000001000000000000000000010000E4
S113061000000000FF010001000000000000FF01D5
S113062000000010000000000000FF7F0000000038
S11306300000FF01000100000000FF01FF0F0001A6
S11306400000FF01FF0F000000010000FF0F000089
S1130650FF01000100000000FF01FF0F0001000086
S1130660FF01FF0F000000010000FF0F0000FF0169
S1130670000100000000FF01FF0F00010000FF0166
S1130680FF0F000000010000FF0F00000000000148
S11306900000FF0100000000000100000000000055
S11306A00000000100000000000000000001000044
S11306B00000000000000000001000000000000026
S11306C0FF7F000011241FBECFEFDAE0DEBFCDBFF5
S11306D012E0A0E0B1E0E2E5FBE102C005900D927A
S11306E0A431B107D9F722E0A4E1B2E001C01D9220
S11306F0AA35B207E1F70E948C0B0C94A70D0C9459
S113070000001F920F920FB60F9211248F93889AB4
S113071081E0809319028F910F900FBE0F901F906C
S113072018958EBD0DB407FEFDCF8EB50895CF93F9
S1130730DF93D82FC62F28988CB580648CBD8AE0AF
S11307400E9491038D2F0E9491038C2F0E9491038C
S11307508CB58F7B8CBD289ADF91CF910895CF9370
S1130760C82F28988CB580648CBD8BE00E949103BF
S11307708C2F0E9491038FEF0E9491039CB59F7B65
S11307809CBD289ACF9108951F93CF93DF93182F80
S1130790D62FC72F28988CB580648CBD8AE00E9420
S11307A09103812F0E9491038D2F0E9491038C2F1E
S11307B00E9491038CB58F7B8CBD289ADF91CF91D9
S11307C01F910895CF93DF93C82F28988CB5806428
S11307D08CBD8BE00E9491038C2F0E9491038FEFBC
S11307E00E949103C82FD0E08FEF0E9491039CB523
S11307F09F7B9CBD289A9E01382BC901DF91CF9124
S11308000895CF93DF93EB01833009F443C028F4B8
S1130810813069F08230D1F0DAC0883009F4D1C077
S1130820893009F4BEC0863009F0D1C0C4C010922A
S1130830190281E08093180224E630E03093170215
S11308402093160290E19CBD8DBDC1C068EC70E0A0
S113085080E20E94C4036AE082E20E9497036DE78B
S113086070E083E20E94C4036AE070E085E20E94C3
S1130870C40363E087E20E94970360E18BE20E9475
S1130880970363E08CE20E9497036AE08DE20E9482
S113089097039DC080911902882369F08BE00E9420
S11308A0AF031092190283E080931802D0931702C9
S11308B0C093160228C080911602909117026817FF
S11308C0790738F4861B970B9093170280931602CE
S11308D07EC0809118028230A9F030F4882309F494
S11308E05BC0813031F073C0833069F0843039F0FB
S11308F06EC08BE00E94AF031092180268C0109281
S1130900180265C0889882E10E94E203EC01C833B2
S11309108FEFD8074CF460E070E08DE00E94650B27
S113092082E08093180203C083E080931802CE0112
S1130930DD2324F4882799278C1B9D0B8E37910582
S113094094F08091140290911502892B29F461E0AE
S113095070E080E10E94650B8CE291E090931502B7
S11309608093140212C08091140290911502009792
S113097061F001979093150280931402892B29F456
S113098060E070E080E10E94650B84E690E0909363
S11309901702809316021BC01092170210921602BF
S11309A016C084E08093180280ED97E090931702BC
S11309B0809316020CC080911802882341F018829B
S11309C006C0109218021092170210921602DF91BC
S11309D0CF9108950E944608EEE7F0E0808180649C
S11309E0808386E080937C0087EC80937A00EAE73A
S11309F0F0E0808186FDFDCF87EC80937A00EAE702
S1130A00F0E0808186FDFDCF2091780090917900FF
S1130A1010927A00EEE7F0E080818F7B808330E0F3
S1130A20392BADECBCEC0E94980D96958795969564
S1130A3087959695879508950E944608EEE7F0E01D
S1130A408081806180838D9A84E080937C0087EC30
S1130A5080937A00EAE7F0E0808186FDFDCF87ECA1
S1130A6080937A00EAE7F0E0808186FDFDCF8091F3
S1130A7078002091790090E0922B10927A00859A68
S1130A808D98EEE7F0E020812F7E208320E335E788
S1130A9030931B0220931A0220E034E0281B390B08
S1130AA0ADECBCEC0E94980D96958795969587952C
S1130AB0969587950895CF93DF93EB01853009F4DC
S1130AC0ACC028F4813061F08330B9F0BCC0883008
S1130AD009F49CC0813169F1863009F0B4C08EC03C
S1130AE08FEF9FEF90931D0280931C0281E090E0B2
S1130AF090931B0280931A02A6C080911A029091CF
S1130B001B02009709F49FC06817790738F4861B05
S1130B10970B90931B0280931A0295C00E941C05A8
S1130B2090931D0280931C02BC0181E10E94650B1D
S1130B308AC0809155028230B9F0833041F181300E
S1130B40C9F56A31710530F063E070E082E10E941A
S1130B50650B47C06B30710508F475C062E070E046
S1130B6082E10E94650B3DC06530710530F461E09F
S1130B7070E082E10E94650B34C06A31710508F4AB
S1130B8062C063E070E082E10E94650B2AC06530B8
S1130B90710530F461E070E082E10E94650B21C0D0
S1130BA06431710508F04FC062E070E082E10E9498
S1130BB0650B17C06530710530F461E070E082E1C7
S1130BC00E94650B0EC06531710530F063E070E082
S1130BD082E10E94650B05C062E070E082E10E9440
S1130BE0650BDF93CF938AE091E09F938F930E94EC
S1130BF0580D0F900F900F900F9025C080911C02FC
S1130C0090911D020196F9F418821DC081E090E0D4
S1130C1090931B0280931A0216C086EB91E09F9377
S1130C208F9380911D028F9380911C028F9383E197
S1130C3091E09F938F930E94580D0F900F900F9007
S1130C400F900F900F90DF91CF91089590E0FC01E9
S1130C503197EE30F10508F091C0DB01EA5AFF4FFD
S1130C600C94920D8FEF9FEF9093210280932002BA
S1130C7088EE93E0909323028093220281E0809394
S1130C801F0280931E0208958091220290912302F4
S1130C90009709F473C06817790738F4861B970B1B
S1130CA0909323028093220208950E94EA04909371
S1130CB0210280932002BC0183E10E94650B80E63F
S1130CC09AEE9093230280932202089580911F024A
S1130CD0882309F453C080911E02882309F44EC06E
S1130CE08EB191E0282F207486FF90E090931E022D
S1130CF0211144C060E070E085E10E94650B089515
S1130D0081E0109709F480E080931F02AB2B31F04F
S1130D1060E070E084E10E94650B089580912002F8
S1130D20909121020E9405080895809120029091DB
S1130D3021028F3F2FEF920709F10E9405080895C1
S1130D4080912002909121020196C1F41C92089591
S1130D5086EB91E09F938F93809121028F938091F2
S1130D6020028F938EE191E09F938F930E94580D00
S1130D700F900F900F900F900F900F9008951F9267
S1130D800F920FB60F9211248F9389B181708093C3
S1130D90270281E0809328028F910F900FBE0F905D
S1130DA01F901895CF93DF93863009F4C0C0EB01F0
S1130DB0873028F4823051F0833069F0CAC089301A
S1130DC009F465C08B3009F4AAC0C3C0109228028C
S1130DD010922402BEC080912802882369F01092E8
S1130DE0280280912402853009F4A8C0609127026A
S1130DF070E089E00E94650B80912402882309F445
S1130E00A8C060912502709126026C0F7D1F70931B
S1130E10260260932502833061F128F4813049F081
S1130E208230D9F096C0843061F0853009F091C0E9
S1130E3027C0653F714008F48CC084E0809324028D
S1130E4088C0693E734008F484C060E070E08CE0C0
S1130E500E94650B109224027CC0653F714008F427
S1130E6078C060E070E08AE00E94650B1092240272
S1130E7070C0653F714008F46CC01092240269C0D0
S1130E80693E734008F465C01092240262C0109257
S1130E90260210922502209781F0889A80912402DC
S1130EA0823041F128F48823C1F08130E9F051C047
S1130EB0833041F1843081F14CC0889880912402C0
S1130EC08230C1F028F4882341F0813079F041C0A8
S1130ED08330C1F0843001F13CC081E0CD2B09F4B2
S1130EE080E08093240235C080E001C082E08093DA
S1130EF024022FC0CD2B11F480E001C083E0809345
S1130F00240227C0CD2B29F460E070E08BE00E941E
S1130F10650B109224021DC0109224021AC085E0B1
S1130F2080932402109226021092250212C080910E
S1130F302402882371F0FB0110820BC0609125020A
S1130F40709126026C0F7D1F709326026093250218
S1130F5097CFDF91CF9108952091350230913602D9
S1130F60DC01AA0FBB1FA80FB91FA20FB31F4D911D
S1130F705C91452B11F480E090E0FC01EE0FFF1F23
S1130F80E80FF91FE20FF31F2081318130933402FF
S1130F9020933302428140933702309332022093EC
S1130FA0310241E0232B09F440E040933D020895CF
S1130FB0CF93DF93EC01FC01EE0FFF1FE050FF4FD6
S1130FC080819181892B11F4C0E0D0E0FE01EE0F05
S1130FD0FF1FE050FF4F80819181909336028093F0
S1130FE0350280E090E00E94AC0780933802C09301
S1130FF03C02CE01DF91CF91089590933202809309
S1131000310281E080933D0208958D35910528F0E9
S113101088ED91E00E94FD0708959C012D5431094B
S11310202031310528F48AEA92E00E94FD070895F0
S11310309C012B5331092231310528F482E793E0D6
S11310400E94FD0708959C012B523109203131057E
S113105028F480E394E00E94FD0708959C012A513E
S113106031092131310528F484EE94E00E94FD0712
S113107008950997419728F48EE895E00E94FD07AA
S113108008958EE296E00E94FD070895259826981B
S113109027980895FC0180819181892B29F0259A54
S11310A081818093880001C0259882819381892B56
S11310B029F0269A838180938A0001C0269884812E
S11310C09581892B29F0279A858180938C00089536
S11310D027980895EF92FF920F931F93CF93DF9376
S11310E090E08631910508F070C1EB01FC01EC59E8
S11310F0FF4F0C94920D89EA8093800089E08093DD
S1131100810063C125982698279881E080933B024B
S113111082E080933A0210923902109255021092A2
S113112032021092310251C1809131029091320207
S1131130009709F44AC120913D02223009F43FC0CE
S1131140233009F483C0213009F03FC1FC013696F5
S113115065917491FC0138962591349130932A025B
S113116020932902CBE2D2E021E332E0DE01FC014C
S1131170459154914D935D930296A217B307B9F725
S113118082E080933D02E62EF72E70933F02609337
S11311903E0206E412E0E0E4F2E089919991D8017C
S11311A04D915D918D01841B950B6E2D7F2D0E94B9
S11311B07E0D61937193C217D30779F706C18091AD
S11311C03E0290913F0268177907E0F4861B970B63
S11311D090933F0280933E02A0E4B2E0E6E4F2E0A2
S11311E04CE452E08D919D9120813181820F931FB7
S11311F081939193E417F507A9F786E492E00E949E
S11312004A08E3C0E6E4F2E0ABE2B2E08D919C91DF
S113121011979183808312968D919C911397938358
S1131220828314968D919C91159795838483CF0125
S11312300E944A088091290290912A0290933F02C9
S113124080933E0283E080933D02BFC020913E0222
S113125030913F026217730738F4261B370B309323
S11312603F0220933E02B1C09C01265F3F4F309362
S1131270320220933102FC017096859194918F3F44
S11312809F4749F58091370281110BC010923D02AE
S11312908AE291E09F938F930E94580D0F900F90D4
S11312A00DC0815080933702811108C080913802AB
S11312B090E001960E94AC0780933802809133023B
S11312C090913402909332028093310280913D02D6
S11312D0882309F47AC081E080933D0276C08AE1D4
S11312E091E00E94FD0771C086E391E09F938F9384
S11312F00E94580D0F900F9068C081E491E09F9375
S11313008F930E94580D0F900F905FC060E070E0C3
S11313108FE00E94650B59C080913D02811105C088
S113132080913C02882309F450C018824EC00E9468
S113133046084BC06093550277277F936F938BE4E5
S113134091E09F938F930E94580D0F900F900F90F0
S11313500F9080915502823051F0833071F08130CA
S1131360A1F580913B0290E00E94D8072EC08091A5
S11313703A0290E00E94D80728C08091390290E098
S11313800E94D80722C080915502823069F08330D0
S1131390A1F08130D1F480913B0290E001960E944B
S11313A0D80780933B0211C080913A0290E00196E5
S11313B00E94D80780933A0208C08091390290E0D5
S11313C001960E94D80780933902DF91CF911F9133
S11313D00F91FF90EF900895A895F999FECF92BDD3
S11313E081BD6F3F19F484E18FBB03C060BD84E00D
S11313F08FBBF99A0895813049F46FEF80E090E053
S11314000E94EC0910924D0210924C0208951F9212
S11314100F920FB60F9211248F931092DA0081E08D
S1131420809354028F910F900FBE0F901F901895C8
S11314301F93CF93DF93EC01019771F488E791E058
S11314409F938F930E94580D83E08093690081E0FD
S11314508DBB0F900F900DC084E891E09F938F9304
S11314600E94580D83E18093690085E08DBB0F9045
S11314700F90BE0187E00E94650B15E013BF8895AD
S113148013BEBE0188E00E94650B81E18093690070
S11314901DBBDF91CF911F910895CF93DF931F92CE
S11314A0CDB7DEB790E08331910508F00AC1FC01A5
S11314B0E658FF4F0C94920D84B78093500214BEEB
S11314C080E185B987EE84B980EC88B917B882EFDA
S11314D08BB91AB884E08EB91DB882E881BB81E269
S11314E080BB15B880E581BB80937E00EAC081E1B2
S11314F08093690095E09DBB8093D800E2C09DE095
S113150088E10FB6F894A895809360000FBE90937D
S113151060008091500282FF07C02AE032E03093DD
S11315204F0220934E0221C083FF07C021E032E026
S113153030934F0220934E0218C081FF07C028EF5A
S113154031E030934F0220934E020FC080FF07C05A
S113155020EF31E030934F0220934E0206C028EE74
S113156031E030934F0220934E021F928F9380916B
S11315704F028F9380914E028F9383EA91E09F9361
S11315808F930E94580D86EB91E09F938F9389EB84
S113159091E09F938F9383EE91E09F938F930E94AA
S11315A0580D8091D900817080935302880F880F61
S11315B0880F809356020FB6F894DEBF0FBECDBFDE
S11315C080C0A89580915402882351F1109254024E
S11315D08091D90091E0282F217080FF90E09093B2
S11315E05302211103C02AE931E002C021E931E0AC
S11315F086EB91E09F938F933F932F938FED91E030
S11316009F938F930E94580D6091530270E08EE077
S11316100E94650B0F900F900F900F900F900F90FA
S113162081E08983BE016F5F7F4F86E00E94650B76
S11316308981882309F445C080E090E00E94180A5B
S113164040C060E070E085E00E94650B3AC081E034
S113165090E00E94180A35C080915602877F61701D
S1131660660F660F660F682B609356022AC080913E
S113167056028C7F6370682B6093560222C00FB6AB
S1131680F894A8958091600088618093600010921E
S113169060000FBE88988DEA8093640089E9809386
S11316A065000FC080EA80936400109265009DE09D
S11316B088E10FB6F894A895809360000FBE9093CC
S11316C060000F90DF91CF9108950F931F93CF93F4
S11316D0C82F8B010E944D0AB8018C2F0E94FB0970
S11316E0B8018C2F0E94440DB8018C2F0E94010474
S11316F0B8018C2F0E946A08B8018C2F0E945B05E8
S1131700B8018C2F0E942606B8018C2F0E94D206A5
S1131710CF911F910F91089560E070E080E00E94E6
S1131720650B60E070E081E00E94650B60E070E0B2
S113173082E00E94650B7894C0E0D0E00F2EF8EEB2
S1131740EF2EF3E0FF2EF02D61E070E083E00E94C5
S1131750650B2196C83E83E0D807B0F39E01369509
S113176027953695279536952795A5ECB0E20E94E6
S1131770980D8C01129502950F7001271F70012797
S1131780B80184E00E94650B80915102909152024D
S1131790800F911F90935202809351020E9DC001BD
S11317A00F9D900D1E9D900D1124C81BD90BCCCFFD
S11317B0CF92DF92FF920F931F93CF93DF93EC01AD
S11317C08A01FC01222371F04031510511F090E2AD
S11317D001C090E3DB01AB01465F5F4F9D93A4170B
S11317E0B507E1F7DB0119961C920A30110509F0DF
S11317F047C0DD2344F4EE27FF27EC1BFD0BCC246C
S1131800C394D12C02C0C12CD12C3097F1F002C06A
S1131810C12CD12CEB01299630E0F02E412FCF01C1
S1131820B8010E946A0D21978A3010F490E301C038
S113183097E3890F8883CF016F2D742F0E946A0D5F
S1131840FB013F5F309759F706C0EB01289680E310
S1131850FB01808731E0CD2811F08DE28A932223A9
S1131860A1F0231740F0822F90E0831B91099195FA
S11318708195910902C080E090E0C80FD91F05C08E
S1131880309731F6C12CD12CE0CFCE01DF91CF912E
S11318901F910F91FF90DF90CF9008956F927F92E8
S11318A08F929F92AF92BF92CF92DF92EF92FF926C
S11318B00F931F93CF93DF93CDB7DEB72A970FB65D
S11318C0F894DEBF0FBECDBF7C018B016A01689422
S11318D0992491F86894882482F86894772473F89A
S11318E0612CA3C0853209F096C0D80111968C9161
S11318F0843371F0883399F0823321F00E5F1F4FE7
S1131900262D12C0F80182810D5F1F4F292D0CC0B6
S1131910D80112968C910D5F1F4F282D05C0F80138
S113192082810D5F1F4F272D843671F038F4853284
S113193009F46DC0833609F460C077C0833709F4B5
S113194045C0883709F171C05601F2E0AF0EB11CF1
S11319504AE050E0BE016F5F7F4FD6018D919C91AC
S11319600E94D80BFC018081882309F459C06F01BF
S1131970BFEFCB1ADB0AF7010995D6018D916D01F2
S11319808111F9CF650151C05601B2E0AB0EB11C13
S1131990223008F4292D40E150E0BE016F5F7F4FF3
S11319A0F601808191810E94D80BFC0180818823FB
S11319B0C9F16F019FEFC91AD90AF7010995D60138
S11319C08D916D018111F9CF65012FC05601B2E0EF
S11319D0AB0EB11CD601ED91FC918081882321F1DD
S11319E06F01BFEFCB1ADB0AF7010995D6018D9180
S11319F06D018111F9CF650118C05601B2E0AB0E3B
S1131A00B11CF6018081F701099565010EC085E2DC
S1131A10F70109950AC00F5F1F4FF701099505C02B
S1131A20650103C0650101C06501D8018C91811174
S1131A3059CFF70109952A960FB6F894DEBF0FBE69
S1131A40CDBFDF91CF911F910F91FF90EF90DF9069
S1131A50CF90BF90AF909F908F907F906F9008959C
S1131A60E8ECF0E0908195FFFDCF8093CE000895DF
S1131A701092CD008CE08093CC0088E08093C90064
S1131A8086E08093CA000895873039F0883041F0A9
S1131A90813069F40E94380D08951092C9000895A8
S1131AA0E5E6F0E080818E7F80830E94380D089502
S1131AB0CF93DF93CDB7DEB7AE014B5F5F4FFA0133
S1131AC061917191AF0180E39DE00E944E0CDF9122
S1131AD0CF910895AA1BBB1B51E107C0AA1FBB1FCE
S1131AE0A617B70710F0A61BB70B881F991F5A95A6
S1131AF0A9F780959095BC01CD01089597FB072E19
S1131B0016F4009407D077FD09D00E946A0D07FCF3
S1131B1005D03EF4909581959F4F089570956195F9
S1131B207F4F0895EE0FFF1F0590F491E02D099467
S1131B30A29FB001B39FC001A39F700D811D11240A
S1131B40911DB29F700D811D1124911D0895F8946B
S1051B50FFCFC1
S1131B52690163016F0100005D014C445220256458
S1131B620D0A004C44522025642525257300426148
S1131B72747420256425252573004C45447320691B
S1131B82646C650D0A004368617267696E670D0AC9
S1131B9200436861726765640D0A004E65772064CC
S1131BA261796C696768743D25640D0A0092010AC3
S1131BB2000000B0010A000000C401000000006A35
S1131BC2010542010A00000044656570536C6565B5
S1131BD2700D0A004C69676874536C6565700D0A70
S1131BE20061747461636865640064657461636848
S1131BF26564000D0A0A52657365743A25732028D8
S1131C023078253278290D0A005370696B65792082
S1131C1242696B65204C6967687420666F72204163
S1131C22546D656761333255342076302E36005553
S1131C325342202573257300556E6B6E6F776E00C9
S1131C42506F7765724F6E00457874526573657490
S1131C52005761746368446F670042726F776E4F16
S1071C627574000091
S9030000FC
