S016000042696B654272616B654C696768742E73726563B6
S11300000C9456000C9468000C9468000C946800DE
S11300100C9468000C9468000C9468000C946800BC
S11300200C9468000C9468000C9468000C946800AC
S11300300C9468000C9468000C9468000C9468009C
S11300400C9468000C9468000C9468000C9468008C
S11300500C9468000C9468000C9468000C9468007C
S11300600C9468000C9468000C9468000C9468006C
S11300700C9468000C9468000C9468000C9468005C
S11300800C9468000C9468000C9468000C9468004C
S11300900C9468000C9468000C9468000C9468003C
S11300A00C9468000C9468000C94680011241FBE22
S11300B0CFEFDAE0DEBFCDBF21E0A0E0B1E001C0C8
S11300C01D92A230B207E1F70E94F0000C940901DE
S11300D00C940000823041F128F4882359F08130D7
S11300E0F9F00895843009F46CC048F1853009F4BE
S11300F073C0089580EE84B91AB81DB881E280BB3C
S113010015B881BB80E18093880080938A00809336
S11301108C0089EA8093800089E0809381000895AF
S113012085E08093000108959DE088E10FB6F8947E
S1130130A895809360000FBE909360000895A895E1
S113014089B1817090910101891709F448C08093A5
S11301500101882369F1809100018F5F8093000180
S1130160883020F085E08093000106C0863069F075
S11301708730A1F08530D1F480E48093880080E159
S113018080938A0080938C0011C080E18093880062
S113019090E490938A0080938C0008C080E180935F
S11301A0880080938A0080E480938C00889A089564
S11301B080E18093880080938A0080938C008898E3
S11301C0089583B7816083BF83B7816083BF8895B7
S11301D083B78E7F83BF089583B78E7F83BF0895CF
S11301E040E050E0BA0180E00E946A0040E050E044
S11301F0BA0181E00E946A0040E050E0BA0182E066
S11302000E946A0040E050E0BA0183E00E946A0064
S1090210F9CFF894FFCFC2
S9030000FC
